ARM Linker, 5.03 [Build 76] [MDK-ARM Standard]

==============================================================================

Section Cross References

    system_stm32f1xx.o(i.SystemCoreClockUpdate) refers to system_stm32f1xx.o(.data) for SystemCoreClock
    system_stm32f1xx.o(i.SystemCoreClockUpdate) refers to system_stm32f1xx.o(.constdata) for AHBPrescTable
    startup_stm32f103xe.o(RESET) refers to startup_stm32f103xe.o(STACK) for __initial_sp
    startup_stm32f103xe.o(RESET) refers to startup_stm32f103xe.o(.text) for Reset_Handler
    startup_stm32f103xe.o(RESET) refers to stm32f1xx_it.o(i.NMI_Handler) for NMI_Handler
    startup_stm32f103xe.o(RESET) refers to context_rvds.o(.text) for HardFault_Handler
    startup_stm32f103xe.o(RESET) refers to stm32f1xx_it.o(i.MemManage_Handler) for MemManage_Handler
    startup_stm32f103xe.o(RESET) refers to stm32f1xx_it.o(i.BusFault_Handler) for BusFault_Handler
    startup_stm32f103xe.o(RESET) refers to stm32f1xx_it.o(i.UsageFault_Handler) for UsageFault_Handler
    startup_stm32f103xe.o(RESET) refers to stm32f1xx_it.o(i.SVC_Handler) for SVC_Handler
    startup_stm32f103xe.o(RESET) refers to stm32f1xx_it.o(i.DebugMon_Handler) for DebugMon_Handler
    startup_stm32f103xe.o(RESET) refers to stm32f1xx_it.o(i.SysTick_Handler) for SysTick_Handler
    startup_stm32f103xe.o(.text) refers to system_stm32f1xx.o(i.SystemInit) for SystemInit
    startup_stm32f103xe.o(.text) refers to entry.o(.ARM.Collect$$$$00000000) for __main
    stm32f1xx_hal_flash.o(i.FLASH_Program_HalfWord) refers to stm32f1xx_hal_flash.o(.bss) for pFlash
    stm32f1xx_hal_flash.o(i.FLASH_SetErrorCode) refers to stm32f1xx_hal_flash.o(.bss) for pFlash
    stm32f1xx_hal_flash.o(i.FLASH_WaitForLastOperation) refers to stm32f1xx_hal.o(i.HAL_GetTick) for HAL_GetTick
    stm32f1xx_hal_flash.o(i.FLASH_WaitForLastOperation) refers to stm32f1xx_hal_flash.o(i.FLASH_SetErrorCode) for FLASH_SetErrorCode
==============================================================================

Removing Unused input sections from the image.

    Removing system_stm32f1xx.o(.rev16_text), (4 bytes).
    Removing system_stm32f1xx.o(.revsh_text), (4 bytes).
    Removing system_stm32f1xx.o(.rrx_text), (6 bytes).
    Removing system_stm32f1xx.o(i.SystemCoreClockUpdate), (164 bytes).
    Removing startup_stm32f103xe.o(HEAP), (1280 bytes).
    Removing stm32f1xx_hal_gpio_ex.o(.rev16_text), (4 bytes).
    Removing stm32f1xx_hal_gpio_ex.o(.revsh_text), (4 bytes).
    Removing stm32f1xx_hal_gpio_ex.o(.rrx_text), (6 bytes).
    Removing stm32f1xx_hal_gpio_ex.o(i.HAL_GPIOEx_ConfigEventout), (24 bytes).
    Removing stm32f1xx_hal_gpio_ex.o(i.HAL_GPIOEx_DisableEventout), (20 bytes).
    Removing stm32f1xx_hal_gpio_ex.o(i.HAL_GPIOEx_EnableEventout), (20 bytes).
    Removing stm32f1xx_hal_flash.o(.rev16_text), (4 bytes).
    Removing stm32f1xx_hal_flash.o(.revsh_text), (4 bytes).
    Removing stm32f1xx_hal_flash.o(.rrx_text), (6 bytes).
    Removing stm32f1xx_hal_flash.o(i.FLASH_Program_HalfWord), (32 bytes).
    Removing stm32f1xx_hal_flash.o(i.FLASH_SetErrorCode), (104 bytes).
    Removing stm32f1xx_hal_flash.o(i.FLASH_WaitForLastOperation), (108 bytes).
    Removing stm32f1xx_hal_flash.o(i.HAL_FLASH_EndOfOperationCallback), (2 bytes).
==============================================================================

Image Symbol Table

    Local Symbols

    Symbol Name                              Value     Ov Type        Size  Object(Section)

    ../Drivers/CMSIS//Device/ST/STM32F1xx/Source/Templates/system_stm32f1xx.c 0x00000000   Number         0  system_stm32f1xx.o ABSOLUTE
    ../Drivers/STM32F1xx_HAL_Driver/Src/stm32f1xx_hal.c 0x00000000   Number         0  stm32f1xx_hal.o ABSOLUTE
    ../Drivers/STM32F1xx_HAL_Driver/Src/stm32f1xx_hal_cortex.c 0x00000000   Number         0  stm32f1xx_hal_cortex.o ABSOLUTE
    ../Drivers/STM32F1xx_HAL_Driver/Src/stm32f1xx_hal_dma.c 0x00000000   Number         0  stm32f1xx_hal_dma.o ABSOLUTE
    ../Drivers/STM32F1xx_HAL_Driver/Src/stm32f1xx_hal_flash.c 0x00000000   Number         0  stm32f1xx_hal_flash.o ABSOLUTE
    ../Drivers/STM32F1xx_HAL_Driver/Src/stm32f1xx_hal_flash_ex.c 0x00000000   Number         0  stm32f1xx_hal_flash_ex.o ABSOLUTE
    ../Drivers/STM32F1xx_HAL_Driver/Src/stm32f1xx_hal_gpio.c 0x00000000   Number         0  stm32f1xx_hal_gpio.o ABSOLUTE
    ../Drivers/STM32F1xx_HAL_Driver/Src/stm32f1xx_hal_gpio_ex.c 0x00000000   Number         0  stm32f1xx_hal_gpio_ex.o ABSOLUTE
    ../Drivers/STM32F1xx_HAL_Driver/Src/stm32f1xx_hal_pwr.c 0x00000000   Number         0  stm32f1xx_hal_pwr.o ABSOLUTE
    ../Drivers/STM32F1xx_HAL_Driver/Src/stm32f1xx_hal_rcc.c 0x00000000   Number         0  stm32f1xx_hal_rcc.o ABSOLUTE
    ../Drivers/STM32F1xx_HAL_Driver/Src/stm32f1xx_hal_rcc_ex.c 0x00000000   Number         0  stm32f1xx_hal_rcc_ex.o ABSOLUTE
    ../Drivers/STM32F1xx_HAL_Driver/Src/stm32f1xx_hal_tim.c 0x00000000   Number         0  stm32f1xx_hal_tim.o ABSOLUTE
    ../Drivers/STM32F1xx_HAL_Driver/Src/stm32f1xx_hal_tim_ex.c 0x00000000   Number         0  stm32f1xx_hal_tim_ex.o ABSOLUTE
    ../Drivers/STM32F1xx_HAL_Driver/Src/stm32f1xx_hal_uart.c 0x00000000   Number         0  stm32f1xx_hal_uart.o ABSOLUTE
    ../Src/gpio.c                            0x00000000   Number         0  gpio.o ABSOLUTE
    ../Src/main.c                            0x00000000   Number         0  main.o ABSOLUTE
    ../Src/stm32f1xx_hal_msp.c               0x00000000   Number         0  stm32f1xx_hal_msp.o ABSOLUTE
    ../Src/stm32f1xx_it.c                    0x00000000   Number         0  stm32f1xx_it.o ABSOLUTE
    ../Src/usart.c                           0x00000000   Number         0  usart.o ABSOLUTE
    ../clib/microlib/init/entry.s            0x00000000   Number         0  entry8a.o ABSOLUTE
    ../clib/microlib/init/entry.s            0x00000000   Number         0  entry10b.o ABSOLUTE
    ../clib/microlib/init/entry.s            0x00000000   Number         0  entry7b.o ABSOLUTE
    ../clib/microlib/init/entry.s            0x00000000   Number         0  entry11b.o ABSOLUTE
    ../clib/microlib/init/entry.s            0x00000000   Number         0  entry7a.o ABSOLUTE
    ../clib/microlib/init/entry.s            0x00000000   Number         0  entry9b.o ABSOLUTE
    ../clib/microlib/init/entry.s            0x00000000   Number         0  entry2.o ABSOLUTE
    ../clib/microlib/init/entry.s            0x00000000   Number         0  entry.o ABSOLUTE
    ../clib/microlib/init/entry.s            0x00000000   Number         0  entry5.o ABSOLUTE
    ../clib/microlib/init/entry.s            0x00000000   Number         0  entry10a.o ABSOLUTE
    ../clib/microlib/init/entry.s            0x00000000   Number         0  entry11a.o ABSOLUTE
    ../clib/microlib/init/entry.s            0x00000000   Number         0  entry9a.o ABSOLUTE
    ../clib/microlib/init/entry.s            0x00000000   Number         0  entry8b.o ABSOLUTE
    ../clib/microlib/longlong.c              0x00000000   Number         0  llushr.o ABSOLUTE
    ..\Drivers\CMSIS\\Device\ST\STM32F1xx\Source\Templates\system_stm32f1xx.c 0x00000000   Number         0  system_stm32f1xx.o ABSOLUTE
    ..\Drivers\STM32F1xx_HAL_Driver\Src\stm32f1xx_hal.c 0x00000000   Number         0  stm32f1xx_hal.o ABSOLUTE
    ..\Drivers\STM32F1xx_HAL_Driver\Src\stm32f1xx_hal_cortex.c 0x00000000   Number         0  stm32f1xx_hal_cortex.o ABSOLUTE
    ..\Drivers\STM32F1xx_HAL_Driver\Src\stm32f1xx_hal_dma.c 0x00000000   Number         0  stm32f1xx_hal_dma.o ABSOLUTE
    ..\Drivers\STM32F1xx_HAL_Driver\Src\stm32f1xx_hal_flash.c 0x00000000   Number         0  stm32f1xx_hal_flash.o ABSOLUTE
    ..\Drivers\STM32F1xx_HAL_Driver\Src\stm32f1xx_hal_flash_ex.c 0x00000000   Number         0  stm32f1xx_hal_flash_ex.o ABSOLUTE
    ..\Drivers\STM32F1xx_HAL_Driver\Src\stm32f1xx_hal_gpio.c 0x00000000   Number         0  stm32f1xx_hal_gpio.o ABSOLUTE
    ..\Drivers\STM32F1xx_HAL_Driver\Src\stm32f1xx_hal_gpio_ex.c 0x00000000   Number         0  stm32f1xx_hal_gpio_ex.o ABSOLUTE
    ..\Drivers\STM32F1xx_HAL_Driver\Src\stm32f1xx_hal_pwr.c 0x00000000   Number         0  stm32f1xx_hal_pwr.o ABSOLUTE
    ..\Drivers\STM32F1xx_HAL_Driver\Src\stm32f1xx_hal_rcc.c 0x00000000   Number         0  stm32f1xx_hal_rcc.o ABSOLUTE
    ..\Drivers\STM32F1xx_HAL_Driver\Src\stm32f1xx_hal_rcc_ex.c 0x00000000   Number         0  stm32f1xx_hal_rcc_ex.o ABSOLUTE
    ..\Drivers\STM32F1xx_HAL_Driver\Src\stm32f1xx_hal_tim.c 0x00000000   Number         0  stm32f1xx_hal_tim.o ABSOLUTE
    ..\Drivers\STM32F1xx_HAL_Driver\Src\stm32f1xx_hal_tim_ex.c 0x00000000   Number         0  stm32f1xx_hal_tim_ex.o ABSOLUTE
    ..\Drivers\STM32F1xx_HAL_Driver\Src\stm32f1xx_hal_uart.c 0x00000000   Number         0  stm32f1xx_hal_uart.o ABSOLUTE
    ..\RTThread\Kernel\src\clock.c           0x00000000   Number         0  clock.o ABSOLUTE
    ..\RTThread\Kernel\src\components.c      0x00000000   Number         0  components.o ABSOLUTE
    ..\RTThread\Kernel\src\device.c          0x00000000   Number         0  device.o ABSOLUTE
    ..\RTThread\Kernel\src\idle.c            0x00000000   Number         0  idle.o ABSOLUTE
    ..\RTThread\Kernel\src\ipc.c             0x00000000   Number         0  ipc.o ABSOLUTE
    ..\RTThread\Kernel\src\irq.c             0x00000000   Number         0  irq.o ABSOLUTE
    ..\RTThread\Kernel\src\kservice.c        0x00000000   Number         0  kservice.o ABSOLUTE
    ..\RTThread\Kernel\src\mem.c             0x00000000   Number         0  mem.o ABSOLUTE
    ..\RTThread\Kernel\src\memheap.c         0x00000000   Number         0  memheap.o ABSOLUTE
    ..\RTThread\Kernel\src\mempool.c         0x00000000   Number         0  mempool.o ABSOLUTE
    ..\RTThread\Kernel\src\module.c          0x00000000   Number         0  module.o ABSOLUTE
    ..\RTThread\Kernel\src\object.c          0x00000000   Number         0  object.o ABSOLUTE
    ..\RTThread\Kernel\src\scheduler.c       0x00000000   Number         0  scheduler.o ABSOLUTE
    ..\RTThread\Kernel\src\slab.c            0x00000000   Number         0  slab.o ABSOLUTE
    ..\RTThread\Kernel\src\thread.c          0x00000000   Number         0  thread.o ABSOLUTE
    ..\RTThread\Kernel\src\timer.c           0x00000000   Number         0  timer.o ABSOLUTE
    ..\RTThread\Port\context_rvds.S          0x00000000   Number         0  context_rvds.o ABSOLUTE
    ..\RTThread\Port\cpuport.c               0x00000000   Number         0  cpuport.o ABSOLUTE
    ..\Src\RtThreadInit.c                    0x00000000   Number         0  rtthreadinit.o ABSOLUTE
    ..\Src\gpio.c                            0x00000000   Number         0  gpio.o ABSOLUTE
    ..\Src\main.c                            0x00000000   Number         0  main.o ABSOLUTE
    ..\Src\stm32f1xx_hal_msp.c               0x00000000   Number         0  stm32f1xx_hal_msp.o ABSOLUTE
    ..\Src\stm32f1xx_it.c                    0x00000000   Number         0  stm32f1xx_it.o ABSOLUTE
    ..\Src\usart.c                           0x00000000   Number         0  usart.o ABSOLUTE
    dc.s                                     0x00000000   Number         0  dc.o ABSOLUTE
    handlers.s                               0x00000000   Number         0  handlers.o ABSOLUTE
    init.s                                   0x00000000   Number         0  init.o ABSOLUTE
    startup_stm32f103xe.s                    0x00000000   Number         0  startup_stm32f103xe.o ABSOLUTE
    RESET                                    0x08000000   Section      304  startup_stm32f103xe.o(RESET)
    .ARM.Collect$$$$00000000                 0x08000130   Section        0  entry.o(.ARM.Collect$$$$00000000)
    .ARM.Collect$$$$00000001                 0x08000130   Section        4  entry2.o(.ARM.Collect$$$$00000001)
    .ARM.Collect$$$$00000004                 0x08000134   Section        4  entry5.o(.ARM.Collect$$$$00000004)
    .ARM.Collect$$$$00000008                 0x08000138   Section        0  entry7b.o(.ARM.Collect$$$$00000008)
    .ARM.Collect$$$$0000000A                 0x08000138   Section        0  entry8b.o(.ARM.Collect$$$$0000000A)
    .ARM.Collect$$$$0000000B                 0x08000138   Section        8  entry9a.o(.ARM.Collect$$$$0000000B)
    .ARM.Collect$$$$0000000D                 0x08000140   Section        0  entry10a.o(.ARM.Collect$$$$0000000D)
    .ARM.Collect$$$$0000000F                 0x08000140   Section        0  entry11a.o(.ARM.Collect$$$$0000000F)
    .ARM.Collect$$$$00002712                 0x08000140   Section        4  entry2.o(.ARM.Collect$$$$00002712)
    __lit__00000000                          0x08000140   Data           4  entry2.o(.ARM.Collect$$$$00002712)
    .text                                    0x08000144   Section       36  startup_stm32f103xe.o(.text)
    .text                                    0x08000168   Section      236  context_rvds.o(.text)
    .text                                    0x08000254   Section       36  init.o(.text)
    i.BusFault_Handler                       0x08000278   Section        0  stm32f1xx_it.o(i.BusFault_Handler)
    i.DebugMon_Handler                       0x0800027c   Section        0  stm32f1xx_it.o(i.DebugMon_Handler)
    i.Error_Handler                          0x0800027e   Section        0  main.o(i.Error_Handler)
    i.HAL_Delay                              0x08000282   Section        0  stm32f1xx_hal.o(i.HAL_Delay)
    i.HAL_GPIO_Init                          0x0800029c   Section        0  stm32f1xx_hal_gpio.o(i.HAL_GPIO_Init)
    i.HAL_GPIO_WritePin                      0x080005dc   Section        0  stm32f1xx_hal_gpio.o(i.HAL_GPIO_WritePin)
    i.HAL_GetTick                            0x080005e8   Section        0  stm32f1xx_hal.o(i.HAL_GetTick)
    i.HAL_IncTick                            0x080005f4   Section        0  stm32f1xx_hal.o(i.HAL_IncTick)
    i.HAL_Init                               0x08000604   Section        0  stm32f1xx_hal.o(i.HAL_Init)
    i.HAL_InitTick                           0x0800062c   Section        0  stm32f1xx_hal.o(i.HAL_InitTick)
    i.HAL_MspInit                            0x08000650   Section        0  stm32f1xx_hal_msp.o(i.HAL_MspInit)
    i.HAL_NVIC_SetPriority                   0x080006dc   Section        0  stm32f1xx_hal_cortex.o(i.HAL_NVIC_SetPriority)
    i.HAL_NVIC_SetPriorityGrouping           0x08000758   Section        0  stm32f1xx_hal_cortex.o(i.HAL_NVIC_SetPriorityGrouping)
    i.HAL_RCC_ClockConfig                    0x08000780   Section        0  stm32f1xx_hal_rcc.o(i.HAL_RCC_ClockConfig)
    i.HAL_RCC_GetHCLKFreq                    0x08000a10   Section        0  stm32f1xx_hal_rcc.o(i.HAL_RCC_GetHCLKFreq)
    i.HAL_RCC_GetPCLK1Freq                   0x08000a1c   Section        0  stm32f1xx_hal_rcc.o(i.HAL_RCC_GetPCLK1Freq)
    i.HAL_RCC_GetPCLK2Freq                   0x08000a48   Section        0  stm32f1xx_hal_rcc.o(i.HAL_RCC_GetPCLK2Freq)
    i.HAL_RCC_GetSysClockFreq                0x08000a74   Section        0  stm32f1xx_hal_rcc.o(i.HAL_RCC_GetSysClockFreq)
    i.HAL_RCC_OscConfig                      0x08000b28   Section        0  stm32f1xx_hal_rcc.o(i.HAL_RCC_OscConfig)
    i.HAL_SYSTICK_CLKSourceConfig            0x0800137c   Section        0  stm32f1xx_hal_cortex.o(i.HAL_SYSTICK_CLKSourceConfig)
    i.HAL_SYSTICK_Callback                   0x080013a4   Section        0  stm32f1xx_hal_cortex.o(i.HAL_SYSTICK_Callback)
    i.HAL_SYSTICK_Config                     0x080013a6   Section        0  stm32f1xx_hal_cortex.o(i.HAL_SYSTICK_Config)
    i.HAL_SYSTICK_IRQHandler                 0x080013da   Section        0  stm32f1xx_hal_cortex.o(i.HAL_SYSTICK_IRQHandler)
    i.HAL_UART_Init                          0x080013e2   Section        0  stm32f1xx_hal_uart.o(i.HAL_UART_Init)
    i.HAL_UART_MspInit                       0x08001450   Section        0  usart.o(i.HAL_UART_MspInit)
    i.HAL_UART_Transmit                      0x080014b4   Section        0  stm32f1xx_hal_uart.o(i.HAL_UART_Transmit)
    i.Led                                    0x080015a4   Section        0  main.o(i.Led)
    i.MX_GPIO_Init                           0x080015d0   Section        0  gpio.o(i.MX_GPIO_Init)
    i.MX_USART1_UART_Init                    0x08001670   Section        0  usart.o(i.MX_USART1_UART_Init)
    i.MemManage_Handler                      0x080016a8   Section        0  stm32f1xx_it.o(i.MemManage_Handler)
    i.NMI_Handler                            0x080016ac   Section        0  stm32f1xx_it.o(i.NMI_Handler)
    i.NVIC_GetPriorityGrouping               0x080016b0   Section        0  stm32f1xx_hal_cortex.o(i.NVIC_GetPriorityGrouping)
    NVIC_GetPriorityGrouping                 0x080016b1   Thumb Code    10  stm32f1xx_hal_cortex.o(i.NVIC_GetPriorityGrouping)
    i.NVIC_SetPriority                       0x080016c0   Section        0  stm32f1xx_hal_cortex.o(i.NVIC_SetPriority)
    NVIC_SetPriority                         0x080016c1   Thumb Code    32  stm32f1xx_hal_cortex.o(i.NVIC_SetPriority)
    i.RtThreadInit                           0x080016e8   Section        0  rtthreadinit.o(i.RtThreadInit)
    i.SVC_Handler                            0x080016f0   Section        0  stm32f1xx_it.o(i.SVC_Handler)
    i.SysTick_Handler                        0x080016f2   Section        0  stm32f1xx_it.o(i.SysTick_Handler)
    i.SystemClock_Config                     0x0800170a   Section        0  main.o(i.SystemClock_Config)
    i.SystemInit                             0x08001780   Section        0  system_stm32f1xx.o(i.SystemInit)
    i.Thread1                                0x080017d8   Section        0  main.o(i.Thread1)
    i.UART_SetConfig                         0x080017fc   Section        0  stm32f1xx_hal_uart.o(i.UART_SetConfig)
    UART_SetConfig                           0x080017fd   Thumb Code   450  stm32f1xx_hal_uart.o(i.UART_SetConfig)
    i.UART_WaitOnFlagUntilTimeout            0x080019c4   Section        0  stm32f1xx_hal_uart.o(i.UART_WaitOnFlagUntilTimeout)
    UART_WaitOnFlagUntilTimeout              0x080019c5   Thumb Code   250  stm32f1xx_hal_uart.o(i.UART_WaitOnFlagUntilTimeout)
    i.UsageFault_Handler                     0x08001abe   Section        0  stm32f1xx_it.o(i.UsageFault_Handler)
    i.__rt_ffs                               0x08001ac4   Section        0  kservice.o(i.__rt_ffs)
    i.__scatterload_copy                     0x08001b10   Section       14  handlers.o(i.__scatterload_copy)
    i.__scatterload_null                     0x08001b1e   Section        2  handlers.o(i.__scatterload_null)
    i.__scatterload_zeroinit                 0x08001b20   Section       14  handlers.o(i.__scatterload_zeroinit)
    i._has_defunct_thread                    0x08001b30   Section        0  idle.o(i._has_defunct_thread)
    _has_defunct_thread                      0x08001b31   Thumb Code    16  idle.o(i._has_defunct_thread)
    i._rt_scheduler_stack_check              0x08001b44   Section        0  scheduler.o(i._rt_scheduler_stack_check)
    _rt_scheduler_stack_check                0x08001b45   Thumb Code    54  scheduler.o(i._rt_scheduler_stack_check)
    i._rt_thread_init                        0x08001b94   Section        0  thread.o(i._rt_thread_init)
    _rt_thread_init                          0x08001b95   Thumb Code   144  thread.o(i._rt_thread_init)
    i._rt_timer_init                         0x08001c54   Section        0  timer.o(i._rt_timer_init)
    _rt_timer_init                           0x08001c55   Thumb Code    66  timer.o(i._rt_timer_init)
    i._rt_timer_remove                       0x08001c96   Section        0  timer.o(i._rt_timer_remove)
    _rt_timer_remove                         0x08001c97   Thumb Code    46  timer.o(i._rt_timer_remove)
    i.main                                   0x08001cc4   Section        0  main.o(i.main)
    i.plug_holes                             0x08001d34   Section        0  mem.o(i.plug_holes)
    plug_holes                               0x08001d35   Thumb Code   160  mem.o(i.plug_holes)
    i.rt_assert_handler                      0x08001e40   Section        0  kservice.o(i.rt_assert_handler)
    i.rt_enter_critical                      0x08001e70   Section        0  scheduler.o(i.rt_enter_critical)
    i.rt_exit_critical                       0x08001e90   Section        0  scheduler.o(i.rt_exit_critical)
    i.rt_free                                0x08001ecc   Section        0  mem.o(i.rt_free)
    i.rt_hw_hard_fault_exception             0x08002034   Section        0  cpuport.o(i.rt_hw_hard_fault_exception)
    i.rt_hw_stack_init                       0x08002058   Section        0  cpuport.o(i.rt_hw_stack_init)
    i.rt_interrupt_enter                     0x080020a4   Section        0  irq.o(i.rt_interrupt_enter)
    i.rt_interrupt_get_nest                  0x080020c8   Section        0  irq.o(i.rt_interrupt_get_nest)
    i.rt_interrupt_leave                     0x080020d4   Section        0  irq.o(i.rt_interrupt_leave)
    i.rt_ipc_list_resume                     0x080020f8   Section        0  ipc.o(i.rt_ipc_list_resume)
    rt_ipc_list_resume                       0x080020f9   Thumb Code    24  ipc.o(i.rt_ipc_list_resume)
    i.rt_ipc_list_suspend                    0x08002110   Section        0  ipc.o(i.rt_ipc_list_suspend)
    rt_ipc_list_suspend                      0x08002111   Thumb Code   108  ipc.o(i.rt_ipc_list_suspend)
    i.rt_ipc_object_init                     0x0800217c   Section        0  ipc.o(i.rt_ipc_object_init)
    rt_ipc_object_init                       0x0800217d   Thumb Code    16  ipc.o(i.rt_ipc_object_init)
    i.rt_list_init                           0x0800218c   Section        0  ipc.o(i.rt_list_init)
    rt_list_init                             0x0800218d   Thumb Code     6  ipc.o(i.rt_list_init)
    i.rt_list_init                           0x08002192   Section        0  scheduler.o(i.rt_list_init)
    rt_list_init                             0x08002193   Thumb Code     6  scheduler.o(i.rt_list_init)
    i.rt_list_init                           0x08002198   Section        0  timer.o(i.rt_list_init)
    rt_list_init                             0x08002199   Thumb Code     6  timer.o(i.rt_list_init)
    i.rt_list_insert_after                   0x0800219e   Section        0  object.o(i.rt_list_insert_after)
    rt_list_insert_after                     0x0800219f   Thumb Code    14  object.o(i.rt_list_insert_after)
    i.rt_list_insert_after                   0x080021ac   Section        0  thread.o(i.rt_list_insert_after)
    rt_list_insert_after                     0x080021ad   Thumb Code    14  thread.o(i.rt_list_insert_after)
    i.rt_list_insert_after                   0x080021ba   Section        0  timer.o(i.rt_list_insert_after)
    rt_list_insert_after                     0x080021bb   Thumb Code    14  timer.o(i.rt_list_insert_after)
    i.rt_list_insert_before                  0x080021c8   Section        0  ipc.o(i.rt_list_insert_before)
    rt_list_insert_before                    0x080021c9   Thumb Code    14  ipc.o(i.rt_list_insert_before)
    i.rt_list_isempty                        0x080021d6   Section        0  ipc.o(i.rt_list_isempty)
    rt_list_isempty                          0x080021d7   Thumb Code    16  ipc.o(i.rt_list_isempty)
    i.rt_list_isempty                        0x080021e6   Section        0  timer.o(i.rt_list_isempty)
    rt_list_isempty                          0x080021e7   Thumb Code    16  timer.o(i.rt_list_isempty)
    i.rt_list_remove                         0x080021f6   Section        0  object.o(i.rt_list_remove)
    rt_list_remove                           0x080021f7   Thumb Code    18  object.o(i.rt_list_remove)
    i.rt_list_remove                         0x08002208   Section        0  thread.o(i.rt_list_remove)
    rt_list_remove                           0x08002209   Thumb Code    18  thread.o(i.rt_list_remove)
    i.rt_malloc                              0x0800221c   Section        0  mem.o(i.rt_malloc)
    i.rt_memset                              0x0800249c   Section        0  kservice.o(i.rt_memset)
    i.rt_object_allocate                     0x080024e4   Section        0  object.o(i.rt_object_allocate)
    i.rt_object_delete                       0x08002570   Section        0  object.o(i.rt_object_delete)
    i.rt_object_detach                       0x0800260c   Section        0  object.o(i.rt_object_detach)
    i.rt_object_init                         0x08002660   Section        0  object.o(i.rt_object_init)
    i.rt_object_is_systemobject              0x080026b4   Section        0  object.o(i.rt_object_is_systemobject)
    i.rt_schedule                            0x080026f0   Section        0  scheduler.o(i.rt_schedule)
    i.rt_schedule_insert_thread              0x080027a4   Section        0  scheduler.o(i.rt_schedule_insert_thread)
    i.rt_schedule_remove_thread              0x08002830   Section        0  scheduler.o(i.rt_schedule_remove_thread)
    i.rt_sem_init                            0x080028d0   Section        0  ipc.o(i.rt_sem_init)
    i.rt_sem_release                         0x08002918   Section        0  ipc.o(i.rt_sem_release)
    i.rt_sem_take                            0x0800296c   Section        0  ipc.o(i.rt_sem_take)
    i.rt_soft_timer_check                    0x08002a88   Section        0  timer.o(i.rt_soft_timer_check)
    i.rt_strncpy                             0x08002b28   Section        0  kservice.o(i.rt_strncpy)
    i.rt_system_heap_init                    0x08002b5c   Section        0  mem.o(i.rt_system_heap_init)
    i.rt_system_scheduler_init               0x08002c38   Section        0  scheduler.o(i.rt_system_scheduler_init)
    i.rt_system_scheduler_start              0x08002c98   Section        0  scheduler.o(i.rt_system_scheduler_start)
    i.rt_system_timer_init                   0x08002cdc   Section        0  timer.o(i.rt_system_timer_init)
    i.rt_system_timer_thread_init            0x08002cf8   Section        0  timer.o(i.rt_system_timer_thread_init)
    i.rt_thread_create                       0x08002d4c   Section        0  thread.o(i.rt_thread_create)
    i.rt_thread_delay                        0x08002d9c   Section        0  thread.o(i.rt_thread_delay)
    i.rt_thread_exit                         0x08002da8   Section        0  thread.o(i.rt_thread_exit)
    rt_thread_exit                           0x08002da9   Thumb Code    76  thread.o(i.rt_thread_exit)
    i.rt_thread_idle_entry                   0x08002dfc   Section        0  idle.o(i.rt_thread_idle_entry)
    rt_thread_idle_entry                     0x08002dfd   Thumb Code    20  idle.o(i.rt_thread_idle_entry)
    i.rt_thread_idle_excute                  0x08002e14   Section        0  idle.o(i.rt_thread_idle_excute)
    i.rt_thread_idle_init                    0x08002eb4   Section        0  idle.o(i.rt_thread_idle_init)
    i.rt_thread_init                         0x08002ef0   Section        0  thread.o(i.rt_thread_init)
    i.rt_thread_resume                       0x08002f6c   Section        0  thread.o(i.rt_thread_resume)
    i.rt_thread_self                         0x08002fd4   Section        0  thread.o(i.rt_thread_self)
    i.rt_thread_sleep                        0x08002fe0   Section        0  thread.o(i.rt_thread_sleep)
    i.rt_thread_startup                      0x08003048   Section        0  thread.o(i.rt_thread_startup)
    i.rt_thread_suspend                      0x080030f4   Section        0  thread.o(i.rt_thread_suspend)
    i.rt_thread_timeout                      0x08003158   Section        0  thread.o(i.rt_thread_timeout)
    i.rt_thread_timer_entry                  0x080031d8   Section        0  timer.o(i.rt_thread_timer_entry)
    rt_thread_timer_entry                    0x080031d9   Thumb Code    62  timer.o(i.rt_thread_timer_entry)
    i.rt_thread_yield                        0x0800321c   Section        0  thread.o(i.rt_thread_yield)
    i.rt_tick_get                            0x0800327c   Section        0  clock.o(i.rt_tick_get)
    i.rt_tick_increase                       0x08003288   Section        0  clock.o(i.rt_tick_increase)
    i.rt_timer_check                         0x080032b8   Section        0  timer.o(i.rt_timer_check)
    i.rt_timer_control                       0x08003354   Section        0  timer.o(i.rt_timer_control)
    i.rt_timer_detach                        0x080033b8   Section        0  timer.o(i.rt_timer_detach)
    i.rt_timer_init                          0x080033fc   Section        0  timer.o(i.rt_timer_init)
    i.rt_timer_list_next_timeout             0x08003450   Section        0  timer.o(i.rt_timer_list_next_timeout)
    rt_timer_list_next_timeout               0x08003451   Thumb Code    28  timer.o(i.rt_timer_list_next_timeout)
    i.rt_timer_start                         0x0800346c   Section        0  timer.o(i.rt_timer_start)
    i.rt_timer_stop                          0x08003608   Section        0  timer.o(i.rt_timer_stop)
    i.rtthread_startup                       0x08003674   Section        0  rtthreadinit.o(i.rtthread_startup)
    rtthread_startup                         0x08003675   Thumb Code    28  rtthreadinit.o(i.rtthread_startup)
    .constdata                               0x08003698   Section       24  system_stm32f1xx.o(.constdata)
    .constdata                               0x080036b0   Section       22  idle.o(.constdata)
    __FUNCTION__                             0x080036b0   Data          22  idle.o(.constdata)
    .constdata                               0x080036c6   Section      471  ipc.o(.constdata)
    __FUNCTION__                             0x080036c6   Data          12  ipc.o(.constdata)
    __FUNCTION__                             0x080036d2   Data          14  ipc.o(.constdata)
    __FUNCTION__                             0x080036e0   Data          14  ipc.o(.constdata)
    __FUNCTION__                             0x080036ee   Data          14  ipc.o(.constdata)
    __FUNCTION__                             0x080036fc   Data          12  ipc.o(.constdata)
    __FUNCTION__                             0x08003708   Data          15  ipc.o(.constdata)
    __FUNCTION__                             0x08003717   Data          14  ipc.o(.constdata)
    __FUNCTION__                             0x08003725   Data          16  ipc.o(.constdata)
    __FUNCTION__                             0x08003735   Data          16  ipc.o(.constdata)
    __FUNCTION__                             0x08003745   Data          16  ipc.o(.constdata)
    __FUNCTION__                             0x08003755   Data          14  ipc.o(.constdata)
    __FUNCTION__                             0x08003763   Data          17  ipc.o(.constdata)
    __FUNCTION__                             0x08003774   Data          14  ipc.o(.constdata)
    __FUNCTION__                             0x08003782   Data          16  ipc.o(.constdata)
    __FUNCTION__                             0x08003792   Data          16  ipc.o(.constdata)
    __FUNCTION__                             0x080037a2   Data          16  ipc.o(.constdata)
    __FUNCTION__                             0x080037b2   Data          14  ipc.o(.constdata)
    __FUNCTION__                             0x080037c0   Data          14  ipc.o(.constdata)
    __FUNCTION__                             0x080037ce   Data          17  ipc.o(.constdata)
    __FUNCTION__                             0x080037df   Data          11  ipc.o(.constdata)
    __FUNCTION__                             0x080037ea   Data          13  ipc.o(.constdata)
    __FUNCTION__                             0x080037f7   Data          13  ipc.o(.constdata)
    __FUNCTION__                             0x08003804   Data          13  ipc.o(.constdata)
    __FUNCTION__                             0x08003811   Data          16  ipc.o(.constdata)
    __FUNCTION__                             0x08003821   Data          11  ipc.o(.constdata)
    __FUNCTION__                             0x0800382c   Data          14  ipc.o(.constdata)
    __FUNCTION__                             0x0800383a   Data          11  ipc.o(.constdata)
    __FUNCTION__                             0x08003845   Data          13  ipc.o(.constdata)
    __FUNCTION__                             0x08003852   Data          13  ipc.o(.constdata)
    __FUNCTION__                             0x0800385f   Data          13  ipc.o(.constdata)
    __FUNCTION__                             0x0800386c   Data          11  ipc.o(.constdata)
    __FUNCTION__                             0x08003877   Data          13  ipc.o(.constdata)
    __FUNCTION__                             0x08003884   Data          11  ipc.o(.constdata)
    __FUNCTION__                             0x0800388f   Data          14  ipc.o(.constdata)
    .constdata                               0x0800389d   Section      290  kservice.o(.constdata)
    small_digits                             0x0800399d   Data          17  kservice.o(.constdata)
    large_digits                             0x080039ae   Data          17  kservice.o(.constdata)
    .constdata                               0x080039c0   Section      312  mem.o(.constdata)
    __FUNCTION__                             0x080039c0   Data          11  mem.o(.constdata)
    __FUNCTION__                             0x080039cb   Data          20  mem.o(.constdata)
    __FUNCTION__                             0x080039df   Data          10  mem.o(.constdata)
    __FUNCTION__                             0x080039e9   Data          11  mem.o(.constdata)
    __FUNCTION__                             0x080039f4   Data          10  mem.o(.constdata)
    __FUNCTION__                             0x080039fe   Data           8  mem.o(.constdata)
    .constdata                               0x08003af8   Section       94  object.o(.constdata)
    __FUNCTION__                             0x08003af8   Data          17  object.o(.constdata)
    __FUNCTION__                             0x08003b09   Data          19  object.o(.constdata)
    __FUNCTION__                             0x08003b1c   Data          17  object.o(.constdata)
    __FUNCTION__                             0x08003b2d   Data          26  object.o(.constdata)
    __FUNCTION__                             0x08003b47   Data          15  object.o(.constdata)
    .constdata                               0x08003b56   Section       78  scheduler.o(.constdata)
    __FUNCTION__                             0x08003b56   Data          26  scheduler.o(.constdata)
    __FUNCTION__                             0x08003b70   Data          26  scheduler.o(.constdata)
    __FUNCTION__                             0x08003b8a   Data          26  scheduler.o(.constdata)
    .constdata                               0x08003ba4   Section      170  thread.o(.constdata)
    __FUNCTION__                             0x08003ba4   Data          16  thread.o(.constdata)
    __FUNCTION__                             0x08003bb4   Data          15  thread.o(.constdata)
    __FUNCTION__                             0x08003bc3   Data          18  thread.o(.constdata)
    __FUNCTION__                             0x08003bd5   Data          17  thread.o(.constdata)
    __FUNCTION__                             0x08003be6   Data          17  thread.o(.constdata)
    __FUNCTION__                             0x08003bf7   Data          16  thread.o(.constdata)
    __FUNCTION__                             0x08003c07   Data          18  thread.o(.constdata)
    __FUNCTION__                             0x08003c19   Data          18  thread.o(.constdata)
    __FUNCTION__                             0x08003c2b   Data          17  thread.o(.constdata)
    __FUNCTION__                             0x08003c3c   Data          18  thread.o(.constdata)
    .constdata                               0x08003c4e   Section       92  timer.o(.constdata)
    __FUNCTION__                             0x08003c4e   Data          14  timer.o(.constdata)
    __FUNCTION__                             0x08003c5c   Data          16  timer.o(.constdata)
    __FUNCTION__                             0x08003c6c   Data          16  timer.o(.constdata)
    __FUNCTION__                             0x08003c7c   Data          15  timer.o(.constdata)
    __FUNCTION__                             0x08003c8b   Data          14  timer.o(.constdata)
    __FUNCTION__                             0x08003c99   Data          17  timer.o(.constdata)
    .data                                    0x20000000   Section        4  system_stm32f1xx.o(.data)
    .data                                    0x20000004   Section        4  stm32f1xx_hal.o(.data)
    uwTick                                   0x20000004   Data           4  stm32f1xx_hal.o(.data)
    .data                                    0x20000008   Section        4  clock.o(.data)
    rt_tick                                  0x20000008   Data           4  clock.o(.data)
    .data                                    0x2000000c   Section        4  idle.o(.data)
    rt_thread_idle_hook                      0x2000000c   Data           4  idle.o(.data)
    .data                                    0x20000010   Section        1  irq.o(.data)
    .data                                    0x20000014   Section        8  kservice.o(.data)
    _errno                                   0x20000014   Data           4  kservice.o(.data)
    .data                                    0x2000001c   Section       32  mem.o(.data)
    rt_malloc_hook                           0x2000001c   Data           4  mem.o(.data)
    rt_free_hook                             0x20000020   Data           4  mem.o(.data)
    heap_ptr                                 0x20000024   Data           4  mem.o(.data)
    heap_end                                 0x20000028   Data           4  mem.o(.data)
    lfree                                    0x2000002c   Data           4  mem.o(.data)
    mem_size_aligned                         0x20000030   Data           4  mem.o(.data)
    used_mem                                 0x20000034   Data           4  mem.o(.data)
    max_mem                                  0x20000038   Data           4  mem.o(.data)
    .data                                    0x2000003c   Section      148  object.o(.data)
    rt_object_attach_hook                    0x200000bc   Data           4  object.o(.data)
    rt_object_detach_hook                    0x200000c0   Data           4  object.o(.data)
    .data                                    0x200000d0   Section       28  scheduler.o(.data)
    rt_scheduler_lock_nest                   0x200000d0   Data           2  scheduler.o(.data)
    rt_scheduler_hook                        0x200000e8   Data           4  scheduler.o(.data)
    .data                                    0x200000ec   Section       24  timer.o(.data)
    random_nr                                0x200000ec   Data           4  timer.o(.data)
    rt_timer_list                            0x200000f0   Data           8  timer.o(.data)
    rt_soft_timer_list                       0x200000f8   Data           8  timer.o(.data)
    rt_timer_timeout_hook                    0x20000100   Data           4  timer.o(.data)
    .data                                    0x20000104   Section       16  cpuport.o(.data)
    rt_exception_hook                        0x20000104   Data           4  cpuport.o(.data)
    .bss                                     0x20000114   Section       64  usart.o(.bss)
    .bss                                     0x20000154   Section     1156  idle.o(.bss)
    idle                                     0x20000154   Data         132  idle.o(.bss)
    rt_thread_stack                          0x200001d8   Data        1024  idle.o(.bss)
    .bss                                     0x200005d8   Section       32  mem.o(.bss)
    heap_sem                                 0x200005d8   Data          32  mem.o(.bss)
    .bss                                     0x200005f8   Section     2072  scheduler.o(.bss)
    .bss                                     0x20000e10   Section      644  timer.o(.bss)
    timer_thread                             0x20000e10   Data         132  timer.o(.bss)
    timer_thread_stack                       0x20000e94   Data         512  timer.o(.bss)
    STACK                                    0x20001098   Section     5376  startup_stm32f103xe.o(STACK)

    Global Symbols

    Symbol Name                              Value     Ov Type        Size  Object(Section)

    BuildAttributes$$THM_ISAv4$P$D$K$B$S$PE$A:L22UL41UL21$X:L11$S22US41US21$IEEE1$IW$USESV6$~STKCKD$USESV7$~SHL$OSPACE$EBA8$MICROLIB$REQ8$PRES8$EABIv2 0x00000000   Number         0  anon$$obj.o ABSOLUTE
    __ARM_use_no_argv                        0x00000000   Number         0  main.o ABSOLUTE
    __cpp_initialize__aeabi_                  - Undefined Weak Reference
    __cxa_finalize                            - Undefined Weak Reference
    __decompress                              - Undefined Weak Reference
    _clock_init                               - Undefined Weak Reference
    _microlib_exit                            - Undefined Weak Reference
    __Vectors_Size                           0x00000130   Number         0  startup_stm32f103xe.o ABSOLUTE
    __Vectors                                0x08000000   Data           4  startup_stm32f103xe.o(RESET)
    __Vectors_End                            0x08000130   Data           0  startup_stm32f103xe.o(RESET)
    __main                                   0x08000131   Thumb Code     0  entry.o(.ARM.Collect$$$$00000000)
    _main_stk                                0x08000131   Thumb Code     0  entry2.o(.ARM.Collect$$$$00000001)
    _main_scatterload                        0x08000135   Thumb Code     0  entry5.o(.ARM.Collect$$$$00000004)
    __main_after_scatterload                 0x08000139   Thumb Code     0  entry5.o(.ARM.Collect$$$$00000004)
    _main_clock                              0x08000139   Thumb Code     0  entry7b.o(.ARM.Collect$$$$00000008)
    _main_cpp_init                           0x08000139   Thumb Code     0  entry8b.o(.ARM.Collect$$$$0000000A)
    _main_init                               0x08000139   Thumb Code     0  entry9a.o(.ARM.Collect$$$$0000000B)
    __rt_final_cpp                           0x08000141   Thumb Code     0  entry10a.o(.ARM.Collect$$$$0000000D)
    __rt_final_exit                          0x08000141   Thumb Code     0  entry11a.o(.ARM.Collect$$$$0000000F)
    Reset_Handler                            0x08000145   Thumb Code     8  startup_stm32f103xe.o(.text)
    ADC1_2_IRQHandler                        0x0800015f   Thumb Code     0  startup_stm32f103xe.o(.text)
    ADC3_IRQHandler                          0x0800015f   Thumb Code     0  startup_stm32f103xe.o(.text)
    CAN1_RX1_IRQHandler                      0x0800015f   Thumb Code     0  startup_stm32f103xe.o(.text)
    CAN1_SCE_IRQHandler                      0x0800015f   Thumb Code     0  startup_stm32f103xe.o(.text)
    DMA1_Channel1_IRQHandler                 0x0800015f   Thumb Code     0  startup_stm32f103xe.o(.text)
    DMA1_Channel2_IRQHandler                 0x0800015f   Thumb Code     0  startup_stm32f103xe.o(.text)
    DMA1_Channel3_IRQHandler                 0x0800015f   Thumb Code     0  startup_stm32f103xe.o(.text)
    DMA1_Channel4_IRQHandler                 0x0800015f   Thumb Code     0  startup_stm32f103xe.o(.text)
    DMA1_Channel5_IRQHandler                 0x0800015f   Thumb Code     0  startup_stm32f103xe.o(.text)
    DMA1_Channel6_IRQHandler                 0x0800015f   Thumb Code     0  startup_stm32f103xe.o(.text)
    DMA1_Channel7_IRQHandler                 0x0800015f   Thumb Code     0  startup_stm32f103xe.o(.text)
    DMA2_Channel1_IRQHandler                 0x0800015f   Thumb Code     0  startup_stm32f103xe.o(.text)
    DMA2_Channel2_IRQHandler                 0x0800015f   Thumb Code     0  startup_stm32f103xe.o(.text)
    DMA2_Channel3_IRQHandler                 0x0800015f   Thumb Code     0  startup_stm32f103xe.o(.text)
    DMA2_Channel4_5_IRQHandler               0x0800015f   Thumb Code     0  startup_stm32f103xe.o(.text)
    EXTI0_IRQHandler                         0x0800015f   Thumb Code     0  startup_stm32f103xe.o(.text)
    EXTI15_10_IRQHandler                     0x0800015f   Thumb Code     0  startup_stm32f103xe.o(.text)
    EXTI1_IRQHandler                         0x0800015f   Thumb Code     0  startup_stm32f103xe.o(.text)
    EXTI2_IRQHandler                         0x0800015f   Thumb Code     0  startup_stm32f103xe.o(.text)
    EXTI3_IRQHandler                         0x0800015f   Thumb Code     0  startup_stm32f103xe.o(.text)
    EXTI4_IRQHandler                         0x0800015f   Thumb Code     0  startup_stm32f103xe.o(.text)
    EXTI9_5_IRQHandler                       0x0800015f   Thumb Code     0  startup_stm32f103xe.o(.text)
    FLASH_IRQHandler                         0x0800015f   Thumb Code     0  startup_stm32f103xe.o(.text)
    FSMC_IRQHandler                          0x0800015f   Thumb Code     0  startup_stm32f103xe.o(.text)
    I2C1_ER_IRQHandler                       0x0800015f   Thumb Code     0  startup_stm32f103xe.o(.text)
    I2C1_EV_IRQHandler                       0x0800015f   Thumb Code     0  startup_stm32f103xe.o(.text)
    I2C2_ER_IRQHandler                       0x0800015f   Thumb Code     0  startup_stm32f103xe.o(.text)
    I2C2_EV_IRQHandler                       0x0800015f   Thumb Code     0  startup_stm32f103xe.o(.text)
    PVD_IRQHandler                           0x0800015f   Thumb Code     0  startup_stm32f103xe.o(.text)
    RCC_IRQHandler                           0x0800015f   Thumb Code     0  startup_stm32f103xe.o(.text)
    RTC_Alarm_IRQHandler                     0x0800015f   Thumb Code     0  startup_stm32f103xe.o(.text)
    RTC_IRQHandler                           0x0800015f   Thumb Code     0  startup_stm32f103xe.o(.text)
    SDIO_IRQHandler                          0x0800015f   Thumb Code     0  startup_stm32f103xe.o(.text)
    SPI1_IRQHandler                          0x0800015f   Thumb Code     0  startup_stm32f103xe.o(.text)
    SPI2_IRQHandler                          0x0800015f   Thumb Code     0  startup_stm32f103xe.o(.text)
    SPI3_IRQHandler                          0x0800015f   Thumb Code     0  startup_stm32f103xe.o(.text)
    TAMPER_IRQHandler                        0x0800015f   Thumb Code     0  startup_stm32f103xe.o(.text)
    TIM1_BRK_IRQHandler                      0x0800015f   Thumb Code     0  startup_stm32f103xe.o(.text)
    TIM1_CC_IRQHandler                       0x0800015f   Thumb Code     0  startup_stm32f103xe.o(.text)
    TIM1_TRG_COM_IRQHandler                  0x0800015f   Thumb Code     0  startup_stm32f103xe.o(.text)
    TIM1_UP_IRQHandler                       0x0800015f   Thumb Code     0  startup_stm32f103xe.o(.text)
    TIM2_IRQHandler                          0x0800015f   Thumb Code     0  startup_stm32f103xe.o(.text)
    TIM3_IRQHandler                          0x0800015f   Thumb Code     0  startup_stm32f103xe.o(.text)
    TIM4_IRQHandler                          0x0800015f   Thumb Code     0  startup_stm32f103xe.o(.text)
    TIM5_IRQHandler                          0x0800015f   Thumb Code     0  startup_stm32f103xe.o(.text)
    TIM6_IRQHandler                          0x0800015f   Thumb Code     0  startup_stm32f103xe.o(.text)
    TIM7_IRQHandler                          0x0800015f   Thumb Code     0  startup_stm32f103xe.o(.text)
    TIM8_BRK_IRQHandler                      0x0800015f   Thumb Code     0  startup_stm32f103xe.o(.text)
    TIM8_CC_IRQHandler                       0x0800015f   Thumb Code     0  startup_stm32f103xe.o(.text)
    TIM8_TRG_COM_IRQHandler                  0x0800015f   Thumb Code     0  startup_stm32f103xe.o(.text)
    TIM8_UP_IRQHandler                       0x0800015f   Thumb Code     0  startup_stm32f103xe.o(.text)
    UART4_IRQHandler                         0x0800015f   Thumb Code     0  startup_stm32f103xe.o(.text)
    UART5_IRQHandler                         0x0800015f   Thumb Code     0  startup_stm32f103xe.o(.text)
    USART1_IRQHandler                        0x0800015f   Thumb Code     0  startup_stm32f103xe.o(.text)
    USART2_IRQHandler                        0x0800015f   Thumb Code     0  startup_stm32f103xe.o(.text)
    USART3_IRQHandler                        0x0800015f   Thumb Code     0  startup_stm32f103xe.o(.text)
    USBWakeUp_IRQHandler                     0x0800015f   Thumb Code     0  startup_stm32f103xe.o(.text)
    USB_HP_CAN1_TX_IRQHandler                0x0800015f   Thumb Code     0  startup_stm32f103xe.o(.text)
    USB_LP_CAN1_RX0_IRQHandler               0x0800015f   Thumb Code     0  startup_stm32f103xe.o(.text)
    WWDG_IRQHandler                          0x0800015f   Thumb Code     0  startup_stm32f103xe.o(.text)
    rt_hw_interrupt_disable                  0x08000169   Thumb Code     8  context_rvds.o(.text)
    rt_hw_interrupt_enable                   0x08000171   Thumb Code     6  context_rvds.o(.text)
    rt_hw_context_switch                     0x08000177   Thumb Code    32  context_rvds.o(.text)
    rt_hw_context_switch_interrupt           0x08000177   Thumb Code     0  context_rvds.o(.text)
    PendSV_Handler                           0x08000197   Thumb Code    60  context_rvds.o(.text)
    rt_hw_context_switch_to                  0x080001d3   Thumb Code    56  context_rvds.o(.text)
    rt_hw_interrupt_thread_switch            0x0800020b   Thumb Code     2  context_rvds.o(.text)
    HardFault_Handler                        0x0800020d   Thumb Code    46  context_rvds.o(.text)
    __scatterload                            0x08000255   Thumb Code    28  init.o(.text)
    __scatterload_rt2                        0x08000255   Thumb Code     0  init.o(.text)
    BusFault_Handler                         0x08000279   Thumb Code     4  stm32f1xx_it.o(i.BusFault_Handler)
    DebugMon_Handler                         0x0800027d   Thumb Code     2  stm32f1xx_it.o(i.DebugMon_Handler)
    Error_Handler                            0x0800027f   Thumb Code     4  main.o(i.Error_Handler)
    HAL_Delay                                0x08000283   Thumb Code    26  stm32f1xx_hal.o(i.HAL_Delay)
    HAL_GPIO_Init                            0x0800029d   Thumb Code   790  stm32f1xx_hal_gpio.o(i.HAL_GPIO_Init)
    HAL_GPIO_WritePin                        0x080005dd   Thumb Code    12  stm32f1xx_hal_gpio.o(i.HAL_GPIO_WritePin)
    HAL_GetTick                              0x080005e9   Thumb Code     6  stm32f1xx_hal.o(i.HAL_GetTick)
    HAL_IncTick                              0x080005f5   Thumb Code    12  stm32f1xx_hal.o(i.HAL_IncTick)
    HAL_Init                                 0x08000605   Thumb Code    34  stm32f1xx_hal.o(i.HAL_Init)
    HAL_InitTick                             0x0800062d   Thumb Code    36  stm32f1xx_hal.o(i.HAL_InitTick)
    HAL_MspInit                              0x08000651   Thumb Code   130  stm32f1xx_hal_msp.o(i.HAL_MspInit)
    HAL_NVIC_SetPriority                     0x080006dd   Thumb Code   124  stm32f1xx_hal_cortex.o(i.HAL_NVIC_SetPriority)
    HAL_NVIC_SetPriorityGrouping             0x08000759   Thumb Code    32  stm32f1xx_hal_cortex.o(i.HAL_NVIC_SetPriorityGrouping)
    HAL_RCC_ClockConfig                      0x08000781   Thumb Code   640  stm32f1xx_hal_rcc.o(i.HAL_RCC_ClockConfig)
    HAL_RCC_GetHCLKFreq                      0x08000a11   Thumb Code     6  stm32f1xx_hal_rcc.o(i.HAL_RCC_GetHCLKFreq)
    HAL_RCC_GetPCLK1Freq                     0x08000a1d   Thumb Code    36  stm32f1xx_hal_rcc.o(i.HAL_RCC_GetPCLK1Freq)
    HAL_RCC_GetPCLK2Freq                     0x08000a49   Thumb Code    36  stm32f1xx_hal_rcc.o(i.HAL_RCC_GetPCLK2Freq)
    HAL_RCC_GetSysClockFreq                  0x08000a75   Thumb Code   146  stm32f1xx_hal_rcc.o(i.HAL_RCC_GetSysClockFreq)
    HAL_RCC_OscConfig                        0x08000b29   Thumb Code  2128  stm32f1xx_hal_rcc.o(i.HAL_RCC_OscConfig)
    HAL_SYSTICK_CLKSourceConfig              0x0800137d   Thumb Code    40  stm32f1xx_hal_cortex.o(i.HAL_SYSTICK_CLKSourceConfig)
    HAL_SYSTICK_Callback                     0x080013a5   Thumb Code     2  stm32f1xx_hal_cortex.o(i.HAL_SYSTICK_Callback)
    HAL_SYSTICK_Config                       0x080013a7   Thumb Code    52  stm32f1xx_hal_cortex.o(i.HAL_SYSTICK_Config)
    HAL_SYSTICK_IRQHandler                   0x080013db   Thumb Code     8  stm32f1xx_hal_cortex.o(i.HAL_SYSTICK_IRQHandler)
    HAL_UART_Init                            0x080013e3   Thumb Code   110  stm32f1xx_hal_uart.o(i.HAL_UART_Init)
    HAL_UART_MspInit                         0x08001451   Thumb Code    86  usart.o(i.HAL_UART_MspInit)
    HAL_UART_Transmit                        0x080014b5   Thumb Code   240  stm32f1xx_hal_uart.o(i.HAL_UART_Transmit)
    Led                                      0x080015a5   Thumb Code    40  main.o(i.Led)
    MX_GPIO_Init                             0x080015d1   Thumb Code   148  gpio.o(i.MX_GPIO_Init)
    MX_USART1_UART_Init                      0x08001671   Thumb Code    46  usart.o(i.MX_USART1_UART_Init)
    MemManage_Handler                        0x080016a9   Thumb Code     4  stm32f1xx_it.o(i.MemManage_Handler)
    NMI_Handler                              0x080016ad   Thumb Code     2  stm32f1xx_it.o(i.NMI_Handler)
    RtThreadInit                             0x080016e9   Thumb Code     8  rtthreadinit.o(i.RtThreadInit)
    SVC_Handler                              0x080016f1   Thumb Code     2  stm32f1xx_it.o(i.SVC_Handler)
    SysTick_Handler                          0x080016f3   Thumb Code    24  stm32f1xx_it.o(i.SysTick_Handler)
    SystemClock_Config                       0x0800170b   Thumb Code   116  main.o(i.SystemClock_Config)
    SystemInit                               0x08001781   Thumb Code    70  system_stm32f1xx.o(i.SystemInit)
    Thread1                                  0x080017d9   Thumb Code    24  main.o(i.Thread1)
    UsageFault_Handler                       0x08001abf   Thumb Code     4  stm32f1xx_it.o(i.UsageFault_Handler)
    __rt_ffs                                 0x08001ac5   Thumb Code    72  kservice.o(i.__rt_ffs)
    __scatterload_copy                       0x08001b11   Thumb Code    14  handlers.o(i.__scatterload_copy)
    __scatterload_null                       0x08001b1f   Thumb Code     2  handlers.o(i.__scatterload_null)
    __scatterload_zeroinit                   0x08001b21   Thumb Code    14  handlers.o(i.__scatterload_zeroinit)
    main                                     0x08001cc5   Thumb Code    90  main.o(i.main)
    rt_assert_handler                        0x08001e41   Thumb Code    44  kservice.o(i.rt_assert_handler)
    rt_enter_critical                        0x08001e71   Thumb Code    28  scheduler.o(i.rt_enter_critical)
    rt_exit_critical                         0x08001e91   Thumb Code    54  scheduler.o(i.rt_exit_critical)
    rt_free                                  0x08001ecd   Thumb Code   236  mem.o(i.rt_free)
    rt_hw_hard_fault_exception               0x08002035   Thumb Code    30  cpuport.o(i.rt_hw_hard_fault_exception)
    rt_hw_stack_init                         0x08002059   Thumb Code    70  cpuport.o(i.rt_hw_stack_init)
    rt_interrupt_enter                       0x080020a5   Thumb Code    30  irq.o(i.rt_interrupt_enter)
    rt_interrupt_get_nest                    0x080020c9   Thumb Code     6  irq.o(i.rt_interrupt_get_nest)
    rt_interrupt_leave                       0x080020d5   Thumb Code    30  irq.o(i.rt_interrupt_leave)
    rt_malloc                                0x0800221d   Thumb Code   508  mem.o(i.rt_malloc)
    rt_memset                                0x0800249d   Thumb Code    72  kservice.o(i.rt_memset)
    rt_object_allocate                       0x080024e5   Thumb Code   124  object.o(i.rt_object_allocate)
    rt_object_delete                         0x08002571   Thumb Code    84  object.o(i.rt_object_delete)
    rt_object_detach                         0x0800260d   Thumb Code    56  object.o(i.rt_object_detach)
    rt_object_init                           0x08002661   Thumb Code    76  object.o(i.rt_object_init)
    rt_object_is_systemobject                0x080026b5   Thumb Code    34  object.o(i.rt_object_is_systemobject)
    rt_schedule                              0x080026f1   Thumb Code   148  scheduler.o(i.rt_schedule)
    rt_schedule_insert_thread                0x080027a5   Thumb Code   104  scheduler.o(i.rt_schedule_insert_thread)
    rt_schedule_remove_thread                0x08002831   Thumb Code   122  scheduler.o(i.rt_schedule_remove_thread)
    rt_sem_init                              0x080028d1   Thumb Code    50  ipc.o(i.rt_sem_init)
    rt_sem_release                           0x08002919   Thumb Code    80  ipc.o(i.rt_sem_release)
    rt_sem_take                              0x0800296d   Thumb Code   250  ipc.o(i.rt_sem_take)
    rt_soft_timer_check                      0x08002a89   Thumb Code   150  timer.o(i.rt_soft_timer_check)
    rt_strncpy                               0x08002b29   Thumb Code    52  kservice.o(i.rt_strncpy)
    rt_system_heap_init                      0x08002b5d   Thumb Code   182  mem.o(i.rt_system_heap_init)
    rt_system_scheduler_init                 0x08002c39   Thumb Code    66  scheduler.o(i.rt_system_scheduler_init)
    rt_system_scheduler_start                0x08002c99   Thumb Code    50  scheduler.o(i.rt_system_scheduler_start)
    rt_system_timer_init                     0x08002cdd   Thumb Code    24  timer.o(i.rt_system_timer_init)
    rt_system_timer_thread_init              0x08002cf9   Thumb Code    58  timer.o(i.rt_system_timer_thread_init)
    rt_thread_create                         0x08002d4d   Thumb Code    80  thread.o(i.rt_thread_create)
    rt_thread_delay                          0x08002d9d   Thumb Code    12  thread.o(i.rt_thread_delay)
    rt_thread_idle_excute                    0x08002e15   Thumb Code   146  idle.o(i.rt_thread_idle_excute)
    rt_thread_idle_init                      0x08002eb5   Thumb Code    38  idle.o(i.rt_thread_idle_init)
    rt_thread_init                           0x08002ef1   Thumb Code    74  thread.o(i.rt_thread_init)
    rt_thread_resume                         0x08002f6d   Thumb Code    78  thread.o(i.rt_thread_resume)
    rt_thread_self                           0x08002fd5   Thumb Code     6  thread.o(i.rt_thread_self)
    rt_thread_sleep                          0x08002fe1   Thumb Code    74  thread.o(i.rt_thread_sleep)
    rt_thread_startup                        0x08003049   Thumb Code   114  thread.o(i.rt_thread_startup)
    rt_thread_suspend                        0x080030f5   Thumb Code    76  thread.o(i.rt_thread_suspend)
    rt_thread_timeout                        0x08003159   Thumb Code    66  thread.o(i.rt_thread_timeout)
    rt_thread_yield                          0x0800321d   Thumb Code    88  thread.o(i.rt_thread_yield)
    rt_tick_get                              0x0800327d   Thumb Code     6  clock.o(i.rt_tick_get)
    rt_tick_increase                         0x08003289   Thumb Code    42  clock.o(i.rt_tick_increase)
    rt_timer_check                           0x080032b9   Thumb Code   148  timer.o(i.rt_timer_check)
    rt_timer_control                         0x08003355   Thumb Code    76  timer.o(i.rt_timer_control)
    rt_timer_detach                          0x080033b9   Thumb Code    44  timer.o(i.rt_timer_detach)
    rt_timer_init                            0x080033fd   Thumb Code    58  timer.o(i.rt_timer_init)
    rt_timer_start                           0x0800346d   Thumb Code   332  timer.o(i.rt_timer_start)
    rt_timer_stop                            0x08003609   Thumb Code    80  timer.o(i.rt_timer_stop)
    AHBPrescTable                            0x08003698   Data          16  system_stm32f1xx.o(.constdata)
    APBPrescTable                            0x080036a8   Data           8  system_stm32f1xx.o(.constdata)
    __lowest_bit_bitmap                      0x0800389d   Data         256  kservice.o(.constdata)
    Region$$Table$$Base                      0x08003cac   Number         0  anon$$obj.o(Region$$Table)
    Region$$Table$$Limit                     0x08003ccc   Number         0  anon$$obj.o(Region$$Table)
    SystemCoreClock                          0x20000000   Data           4  system_stm32f1xx.o(.data)
    rt_interrupt_nest                        0x20000010   Data           1  irq.o(.data)
    rt_assert_hook                           0x20000018   Data           4  kservice.o(.data)
    rt_object_container                      0x2000003c   Data         128  object.o(.data)
    rt_object_trytake_hook                   0x200000c4   Data           4  object.o(.data)
    rt_object_take_hook                      0x200000c8   Data           4  object.o(.data)
    rt_object_put_hook                       0x200000cc   Data           4  object.o(.data)
    rt_current_thread                        0x200000d4   Data           4  scheduler.o(.data)
    rt_current_priority                      0x200000d8   Data           1  scheduler.o(.data)
    rt_thread_ready_priority_group           0x200000dc   Data           4  scheduler.o(.data)
    rt_thread_defunct                        0x200000e0   Data           8  scheduler.o(.data)
    rt_interrupt_from_thread                 0x20000108   Data           4  cpuport.o(.data)
    rt_interrupt_to_thread                   0x2000010c   Data           4  cpuport.o(.data)
    rt_thread_switch_interrupt_flag          0x20000110   Data           4  cpuport.o(.data)
    huart1                                   0x20000114   Data          64  usart.o(.bss)
    rt_thread_priority_table                 0x200005f8   Data        2040  scheduler.o(.bss)
    rt_thread_ready_table                    0x20000df0   Data          32  scheduler.o(.bss)
    Image$$RW_IRAM1$$ZI$$Limit               0x20002598   Number         0  startup_stm32f103xe.o(STACK)
    __initial_sp                             0x20002598   Data           0  startup_stm32f103xe.o(STACK)



==============================================================================

Memory Map of the image

  Image Entry point : 0x08000131

  Load Region LR_IROM1 (Base: 0x08000000, Size: 0x00003de0, Max: 0x00080000, ABSOLUTE)

    Execution Region ER_IROM1 (Base: 0x08000000, Size: 0x00003ccc, Max: 0x00080000, ABSOLUTE)

    Base Addr    Size         Type   Attr      Idx    E Section Name        Object

    0x08000000   0x00000130   Data   RO          117    RESET               startup_stm32f103xe.o
    0x08000130   0x00000000   Code   RO         2740  * .ARM.Collect$$$$00000000  mc_w.l(entry.o)
    0x08000130   0x00000004   Code   RO         2745    .ARM.Collect$$$$00000001  mc_w.l(entry2.o)
    0x08000134   0x00000004   Code   RO         2748    .ARM.Collect$$$$00000004  mc_w.l(entry5.o)
    0x08000138   0x00000000   Code   RO         2750    .ARM.Collect$$$$00000008  mc_w.l(entry7b.o)
    0x08000138   0x00000000   Code   RO         2752    .ARM.Collect$$$$0000000A  mc_w.l(entry8b.o)
    0x08000138   0x00000008   Code   RO         2753    .ARM.Collect$$$$0000000B  mc_w.l(entry9a.o)
    0x08000140   0x00000000   Code   RO         2755    .ARM.Collect$$$$0000000D  mc_w.l(entry10a.o)
    0x08000140   0x00000000   Code   RO         2757    .ARM.Collect$$$$0000000F  mc_w.l(entry11a.o)
    0x08000140   0x00000004   Code   RO         2746    .ARM.Collect$$$$00002712  mc_w.l(entry2.o)
    0x08000144   0x00000024   Code   RO          118    .text               startup_stm32f103xe.o
    0x08000168   0x000000ec   Code   RO         2702    .text               context_rvds.o
    0x08000254   0x00000024   Code   RO         2759    .text               mc_w.l(init.o)
    0x08000278   0x00000004   Code   RO         1449    i.BusFault_Handler  stm32f1xx_it.o
    0x0800027c   0x00000002   Code   RO         1450    i.DebugMon_Handler  stm32f1xx_it.o
    0x0800027e   0x00000004   Code   RO         1314    i.Error_Handler     main.o
    0x08000282   0x0000001a   Code   RO         1187    i.HAL_Delay         stm32f1xx_hal.o
    0x0800029c   0x00000340   Code   RO          678    i.HAL_GPIO_Init     stm32f1xx_hal_gpio.o
    0x080005dc   0x0000000c   Code   RO          682    i.HAL_GPIO_WritePin  stm32f1xx_hal_gpio.o
    0x080005e8   0x0000000c   Code   RO         1191    i.HAL_GetTick       stm32f1xx_hal.o
    0x080005f4   0x00000010   Code   RO         1192    i.HAL_IncTick       stm32f1xx_hal.o
    0x08000604   0x00000028   Code   RO         1193    i.HAL_Init          stm32f1xx_hal.o
    0x0800062c   0x00000024   Code   RO         1194    i.HAL_InitTick      stm32f1xx_hal.o
    0x08000650   0x0000008c   Code   RO         1425    i.HAL_MspInit       stm32f1xx_hal_msp.o
    0x080006dc   0x0000007c   Code   RO          484    i.HAL_NVIC_SetPriority  stm32f1xx_hal_cortex.o
    0x08000758   0x00000028   Code   RO          485    i.HAL_NVIC_SetPriorityGrouping  stm32f1xx_hal_cortex.o
    0x08000780   0x00000290   Code   RO          375    i.HAL_RCC_ClockConfig  stm32f1xx_hal_rcc.o
    0x08000a10   0x0000000c   Code   RO          380    i.HAL_RCC_GetHCLKFreq  stm32f1xx_hal_rcc.o
    0x08000a1c   0x0000002c   Code   RO          382    i.HAL_RCC_GetPCLK1Freq  stm32f1xx_hal_rcc.o
    0x08000a48   0x0000002c   Code   RO          383    i.HAL_RCC_GetPCLK2Freq  stm32f1xx_hal_rcc.o
    0x08000a74   0x000000b4   Code   RO          384    i.HAL_RCC_GetSysClockFreq  stm32f1xx_hal_rcc.o
    0x08000b28   0x00000854   Code   RO          387    i.HAL_RCC_OscConfig  stm32f1xx_hal_rcc.o
    0x0800137c   0x00000028   Code   RO          487    i.HAL_SYSTICK_CLKSourceConfig  stm32f1xx_hal_cortex.o
    0x080013a4   0x00000002   Code   RO          488    i.HAL_SYSTICK_Callback  stm32f1xx_hal_cortex.o
    0x080013a6   0x00000034   Code   RO          489    i.HAL_SYSTICK_Config  stm32f1xx_hal_cortex.o
    0x080013da   0x00000008   Code   RO          490    i.HAL_SYSTICK_IRQHandler  stm32f1xx_hal_cortex.o
    0x080013e2   0x0000006e   Code   RO          775    i.HAL_UART_Init     stm32f1xx_hal_uart.o
    0x08001450   0x00000064   Code   RO         1513    i.HAL_UART_MspInit  usart.o
    0x080014b4   0x000000f0   Code   RO          783    i.HAL_UART_Transmit  stm32f1xx_hal_uart.o
    0x080015a4   0x0000002c   Code   RO         1315    i.Led               main.o
    0x080015d0   0x000000a0   Code   RO         1401    i.MX_GPIO_Init      gpio.o
    0x08001670   0x00000038   Code   RO         1514    i.MX_USART1_UART_Init  usart.o
    0x080016a8   0x00000004   Code   RO         1451    i.MemManage_Handler  stm32f1xx_it.o
    0x080016ac   0x00000002   Code   RO         1452    i.NMI_Handler       stm32f1xx_it.o
    0x080016ae   0x00000002   PAD
    0x080016b0   0x00000010   Code   RO          491    i.NVIC_GetPriorityGrouping  stm32f1xx_hal_cortex.o
    0x080016c0   0x00000028   Code   RO          492    i.NVIC_SetPriority  stm32f1xx_hal_cortex.o
    0x080016e8   0x00000008   Code   RO         1551    i.RtThreadInit      rtthreadinit.o
    0x080016f0   0x00000002   Code   RO         1453    i.SVC_Handler       stm32f1xx_it.o
    0x080016f2   0x00000018   Code   RO         1454    i.SysTick_Handler   stm32f1xx_it.o
    0x0800170a   0x00000074   Code   RO         1316    i.SystemClock_Config  main.o
    0x0800177e   0x00000002   PAD
    0x08001780   0x00000058   Code   RO            5    i.SystemInit        system_stm32f1xx.o
    0x080017d8   0x00000024   Code   RO         1317    i.Thread1           main.o
    0x080017fc   0x000001c8   Code   RO          795    i.UART_SetConfig    stm32f1xx_hal_uart.o
    0x080019c4   0x000000fa   Code   RO          797    i.UART_WaitOnFlagUntilTimeout  stm32f1xx_hal_uart.o
    0x08001abe   0x00000004   Code   RO         1455    i.UsageFault_Handler  stm32f1xx_it.o
    0x08001ac2   0x00000002   PAD
    0x08001ac4   0x0000004c   Code   RO         1962    i.__rt_ffs          kservice.o
    0x08001b10   0x0000000e   Code   RO         2763    i.__scatterload_copy  mc_w.l(handlers.o)
    0x08001b1e   0x00000002   Code   RO         2764    i.__scatterload_null  mc_w.l(handlers.o)
    0x08001b20   0x0000000e   Code   RO         2765    i.__scatterload_zeroinit  mc_w.l(handlers.o)
    0x08001b2e   0x00000002   PAD
    0x08001b30   0x00000014   Code   RO         1619    i._has_defunct_thread  idle.o
    0x08001b44   0x00000050   Code   RO         2375    i._rt_scheduler_stack_check  scheduler.o
    0x08001b94   0x000000c0   Code   RO         2460    i._rt_thread_init   thread.o
    0x08001c54   0x00000042   Code   RO         2575    i._rt_timer_init    timer.o
    0x08001c96   0x0000002e   Code   RO         2576    i._rt_timer_remove  timer.o
    0x08001cc4   0x00000070   Code   RO         1318    i.main              main.o
    0x08001d34   0x0000010c   Code   RO         2129    i.plug_holes        mem.o
    0x08001e40   0x00000030   Code   RO         1965    i.rt_assert_handler  kservice.o
    0x08001e70   0x00000020   Code   RO         2377    i.rt_enter_critical  scheduler.o
    0x08001e90   0x0000003c   Code   RO         2378    i.rt_exit_critical  scheduler.o
    0x08001ecc   0x00000168   Code   RO         2131    i.rt_free           mem.o
    0x08002034   0x00000024   Code   RO         2708    i.rt_hw_hard_fault_exception  cpuport.o
    0x08002058   0x0000004c   Code   RO         2709    i.rt_hw_stack_init  cpuport.o
    0x080020a4   0x00000024   Code   RO         1935    i.rt_interrupt_enter  irq.o
    0x080020c8   0x0000000c   Code   RO         1936    i.rt_interrupt_get_nest  irq.o
    0x080020d4   0x00000024   Code   RO         1937    i.rt_interrupt_leave  irq.o
    0x080020f8   0x00000018   Code   RO         1668    i.rt_ipc_list_resume  ipc.o
    0x08002110   0x0000006c   Code   RO         1670    i.rt_ipc_list_suspend  ipc.o
    0x0800217c   0x00000010   Code   RO         1671    i.rt_ipc_object_init  ipc.o
    0x0800218c   0x00000006   Code   RO         1672    i.rt_list_init      ipc.o
    0x08002192   0x00000006   Code   RO         2379    i.rt_list_init      scheduler.o
    0x08002198   0x00000006   Code   RO         2577    i.rt_list_init      timer.o
    0x0800219e   0x0000000e   Code   RO         2274    i.rt_list_insert_after  object.o
    0x080021ac   0x0000000e   Code   RO         2461    i.rt_list_insert_after  thread.o
    0x080021ba   0x0000000e   Code   RO         2578    i.rt_list_insert_after  timer.o
    0x080021c8   0x0000000e   Code   RO         1673    i.rt_list_insert_before  ipc.o
    0x080021d6   0x00000010   Code   RO         1674    i.rt_list_isempty   ipc.o
    0x080021e6   0x00000010   Code   RO         2579    i.rt_list_isempty   timer.o
    0x080021f6   0x00000012   Code   RO         2275    i.rt_list_remove    object.o
    0x08002208   0x00000012   Code   RO         2462    i.rt_list_remove    thread.o
    0x0800221a   0x00000002   PAD
    0x0800221c   0x00000280   Code   RO         2133    i.rt_malloc         mem.o
    0x0800249c   0x00000048   Code   RO         1973    i.rt_memset         kservice.o
    0x080024e4   0x0000008c   Code   RO         2276    i.rt_object_allocate  object.o
    0x08002570   0x0000009c   Code   RO         2278    i.rt_object_delete  object.o
    0x0800260c   0x00000054   Code   RO         2279    i.rt_object_detach  object.o
    0x08002660   0x00000054   Code   RO         2283    i.rt_object_init    object.o
    0x080026b4   0x0000003c   Code   RO         2284    i.rt_object_is_systemobject  object.o
    0x080026f0   0x000000b4   Code   RO         2380    i.rt_schedule       scheduler.o
    0x080027a4   0x0000008c   Code   RO         2381    i.rt_schedule_insert_thread  scheduler.o
    0x08002830   0x000000a0   Code   RO         2382    i.rt_schedule_remove_thread  scheduler.o
    0x080028d0   0x00000048   Code   RO         1702    i.rt_sem_init       ipc.o
    0x08002918   0x00000054   Code   RO         1703    i.rt_sem_release    ipc.o
    0x0800296c   0x0000011c   Code   RO         1704    i.rt_sem_take       ipc.o
    0x08002a88   0x000000a0   Code   RO         2580    i.rt_soft_timer_check  timer.o
    0x08002b28   0x00000034   Code   RO         1983    i.rt_strncpy        kservice.o
    0x08002b5c   0x000000dc   Code   RO         2137    i.rt_system_heap_init  mem.o
    0x08002c38   0x00000060   Code   RO         2384    i.rt_system_scheduler_init  scheduler.o
    0x08002c98   0x00000044   Code   RO         2385    i.rt_system_scheduler_start  scheduler.o
    0x08002cdc   0x0000001c   Code   RO         2581    i.rt_system_timer_init  timer.o
    0x08002cf8   0x00000054   Code   RO         2582    i.rt_system_timer_thread_init  timer.o
    0x08002d4c   0x00000050   Code   RO         2464    i.rt_thread_create  thread.o
    0x08002d9c   0x0000000c   Code   RO         2465    i.rt_thread_delay   thread.o
    0x08002da8   0x00000054   Code   RO         2468    i.rt_thread_exit    thread.o
    0x08002dfc   0x00000018   Code   RO         1620    i.rt_thread_idle_entry  idle.o
    0x08002e14   0x000000a0   Code   RO         1621    i.rt_thread_idle_excute  idle.o
    0x08002eb4   0x0000003c   Code   RO         1622    i.rt_thread_idle_init  idle.o
    0x08002ef0   0x0000007c   Code   RO         2470    i.rt_thread_init    thread.o
    0x08002f6c   0x00000068   Code   RO         2471    i.rt_thread_resume  thread.o
    0x08002fd4   0x0000000c   Code   RO         2472    i.rt_thread_self    thread.o
    0x08002fe0   0x00000068   Code   RO         2473    i.rt_thread_sleep   thread.o
    0x08003048   0x000000ac   Code   RO         2474    i.rt_thread_startup  thread.o
    0x080030f4   0x00000064   Code   RO         2475    i.rt_thread_suspend  thread.o
    0x08003158   0x00000080   Code   RO         2476    i.rt_thread_timeout  thread.o
    0x080031d8   0x00000044   Code   RO         2583    i.rt_thread_timer_entry  timer.o
    0x0800321c   0x00000060   Code   RO         2477    i.rt_thread_yield   thread.o
    0x0800327c   0x0000000c   Code   RO         1571    i.rt_tick_get       clock.o
    0x08003288   0x00000030   Code   RO         1572    i.rt_tick_increase  clock.o
    0x080032b8   0x0000009c   Code   RO         2584    i.rt_timer_check    timer.o
    0x08003354   0x00000064   Code   RO         2585    i.rt_timer_control  timer.o
    0x080033b8   0x00000044   Code   RO         2588    i.rt_timer_detach   timer.o
    0x080033fc   0x00000054   Code   RO         2589    i.rt_timer_init     timer.o
    0x08003450   0x0000001c   Code   RO         2590    i.rt_timer_list_next_timeout  timer.o
    0x0800346c   0x0000019c   Code   RO         2592    i.rt_timer_start    timer.o
    0x08003608   0x0000006c   Code   RO         2593    i.rt_timer_stop     timer.o
    0x08003674   0x00000024   Code   RO         1552    i.rtthread_startup  rtthreadinit.o
    0x08003698   0x00000018   Data   RO            6    .constdata          system_stm32f1xx.o
    0x080036b0   0x00000016   Data   RO         1625    .constdata          idle.o
    0x080036c6   0x000001d7   Data   RO         1706    .constdata          ipc.o
    0x0800389d   0x00000122   Data   RO         1988    .constdata          kservice.o
    0x080039bf   0x00000001   PAD
    0x080039c0   0x00000138   Data   RO         2139    .constdata          mem.o
    0x08003af8   0x0000005e   Data   RO         2289    .constdata          object.o
    0x08003b56   0x0000004e   Data   RO         2387    .constdata          scheduler.o
    0x08003ba4   0x000000aa   Data   RO         2478    .constdata          thread.o
    0x08003c4e   0x0000005c   Data   RO         2596    .constdata          timer.o
    0x08003caa   0x00000002   PAD
    0x08003cac   0x00000020   Data   RO         2761    Region$$Table       anon$$obj.o


    Execution Region RW_IRAM1 (Base: 0x20000000, Size: 0x00002598, Max: 0x00010000, ABSOLUTE)

    Base Addr    Size         Type   Attr      Idx    E Section Name        Object

    0x20000000   0x00000004   Data   RW            7    .data               system_stm32f1xx.o
    0x20000004   0x00000004   Data   RW         1199    .data               stm32f1xx_hal.o
    0x20000008   0x00000004   Data   RW         1574    .data               clock.o
    0x2000000c   0x00000004   Data   RW         1626    .data               idle.o
    0x20000010   0x00000001   Data   RW         1938    .data               irq.o
    0x20000011   0x00000003   PAD
    0x20000014   0x00000008   Data   RW         1989    .data               kservice.o
    0x2000001c   0x00000020   Data   RW         2140    .data               mem.o
    0x2000003c   0x00000094   Data   RW         2290    .data               object.o
    0x200000d0   0x0000001c   Data   RW         2388    .data               scheduler.o
    0x200000ec   0x00000018   Data   RW         2597    .data               timer.o
    0x20000104   0x00000010   Data   RW         2711    .data               cpuport.o
    0x20000114   0x00000040   Zero   RW         1515    .bss                usart.o
    0x20000154   0x00000484   Zero   RW         1624    .bss                idle.o
    0x200005d8   0x00000020   Zero   RW         2138    .bss                mem.o
    0x200005f8   0x00000818   Zero   RW         2386    .bss                scheduler.o
    0x20000e10   0x00000284   Zero   RW         2595    .bss                timer.o
    0x20001094   0x00000004   PAD
    0x20001098   0x00001500   Zero   RW          115    STACK               startup_stm32f103xe.o


==============================================================================

Image component sizes


      Code (inc. data)   RO Data    RW Data    ZI Data      Debug   Object Name

        60         12          0          4          0        977   clock.o
       236         26          0          0          0        672   context_rvds.o
       112         12          0         16          0       2654   cpuport.o
       160         12          0          0          0        755   gpio.o
       264         44         22          4       1156       3246   idle.o
       624         60        471          0          0      26476   ipc.o
        84         18          0          1          0       1714   irq.o
       248          8        290          8          0       4985   kservice.o
       312         38          0          0          0       7224   main.o
      1488        402        312         32         32       5409   mem.o
       556        150         94        148          0       6041   object.o
        44          8          0          0          0        751   rtthreadinit.o
       822        190         78         28       2072       6516   scheduler.o
        36          8        304          0       5376        700   startup_stm32f103xe.o
       130         16          0          4          0       3138   stm32f1xx_hal.o
       322         22          0          0          0      26556   stm32f1xx_hal_cortex.o
       844         42          0          0          0       2644   stm32f1xx_hal_gpio.o
       140         10          0          0          0        710   stm32f1xx_hal_msp.o
      3068        106          0          0          0       5272   stm32f1xx_hal_rcc.o
      1056          6          0          0          0       3184   stm32f1xx_hal_uart.o
        42          0          0          0          0       2537   stm32f1xx_it.o
        88         18         24          4          0     470571   system_stm32f1xx.o
      1240        320        170          0          0      10508   thread.o
      1444        236         92         24        644      10613   timer.o
       156         24          0          0         64       1314   usart.o

    ----------------------------------------------------------------------
     13584       1788       1892        276       9348     605167   Object Totals
         0          0         32          0          0          0   (incl. Generated)
         8          0          3          3          4          0   (incl. Padding)

    ----------------------------------------------------------------------

      Code (inc. data)   RO Data    RW Data    ZI Data      Debug   Library Member Name

         0          0          0          0          0          0   entry.o
         0          0          0          0          0          0   entry10a.o
         0          0          0          0          0          0   entry11a.o
         8          4          0          0          0          0   entry2.o
         4          0          0          0          0          0   entry5.o
         0          0          0          0          0          0   entry7b.o
         0          0          0          0          0          0   entry8b.o
         8          4          0          0          0          0   entry9a.o
        30          0          0          0          0          0   handlers.o
        36          8          0          0          0         68   init.o

    ----------------------------------------------------------------------
        88         16          0          0          0         68   Library Totals
         2          0          0          0          0          0   (incl. Padding)

    ----------------------------------------------------------------------

      Code (inc. data)   RO Data    RW Data    ZI Data      Debug   Library Name

        86         16          0          0          0         68   mc_w.l

    ----------------------------------------------------------------------
        88         16          0          0          0         68   Library Totals

    ----------------------------------------------------------------------

==============================================================================


      Code (inc. data)   RO Data    RW Data    ZI Data      Debug   

     13672       1804       1892        276       9348     599255   Grand Totals
     13672       1804       1892        276       9348     599255   ELF Image Totals
     13672       1804       1892        276          0          0   ROM Totals

==============================================================================

    Total RO  Size (Code + RO Data)                15564 (  15.20kB)
    Total RW  Size (RW Data + ZI Data)              9624 (   9.40kB)
    Total ROM Size (Code + RO Data + RW Data)      15840 (  15.47kB)

==============================================================================

